{
  "_format": "hh-sol-artifact-1",
  "contractName": "Transactions",
  "sourceName": "contracts/Transactions.sol",
  "abi": [
    {
      "anonymous": false,
      "inputs": [
        {
          "indexed": false,
          "internalType": "address",
          "name": "sender",
          "type": "address"
        },
        {
          "indexed": false,
          "internalType": "address",
          "name": "receiver",
          "type": "address"
        },
        {
          "indexed": false,
          "internalType": "uint256",
          "name": "amount",
          "type": "uint256"
        },
        {
          "indexed": false,
          "internalType": "string",
          "name": "message",
          "type": "string"
        },
        {
          "indexed": false,
          "internalType": "uint256",
          "name": "timestamp",
          "type": "uint256"
        }
      ],
      "name": "Transfer",
      "type": "event"
    },
    {
      "inputs": [
        {
          "internalType": "address",
          "name": "receiver",
          "type": "address"
        },
        {
          "internalType": "uint256",
          "name": "amount",
          "type": "uint256"
        },
        {
          "internalType": "string",
          "name": "message",
          "type": "string"
        }
      ],
      "name": "addBlock",
      "outputs": [],
      "stateMutability": "nonpayable",
      "type": "function"
    },
    {
      "inputs": [],
      "name": "getTransactions",
      "outputs": [
        {
          "components": [
            {
              "internalType": "address",
              "name": "sender",
              "type": "address"
            },
            {
              "internalType": "address",
              "name": "receiver",
              "type": "address"
            },
            {
              "internalType": "uint256",
              "name": "amount",
              "type": "uint256"
            },
            {
              "internalType": "string",
              "name": "message",
              "type": "string"
            },
            {
              "internalType": "uint256",
              "name": "timestamp",
              "type": "uint256"
            }
          ],
          "internalType": "struct Transactions.transferStructure[]",
          "name": "",
          "type": "tuple[]"
        }
      ],
      "stateMutability": "view",
      "type": "function"
    },
    {
      "inputs": [],
      "name": "transactionCount",
      "outputs": [
        {
          "internalType": "uint256",
          "name": "",
          "type": "uint256"
        }
      ],
      "stateMutability": "view",
      "type": "function"
    }
  ],
  "bytecode": "0x608060405234801561001057600080fd5b50610aa3806100206000396000f3fe608060405234801561001057600080fd5b50600436106100415760003560e01c806314fe9e481461004657806383920e9014610062578063b77bf60014610080575b600080fd5b610060600480360381019061005b9190610529565b61009e565b005b61006a61023a565b6040516100779190610797565b60405180910390f35b6100886103eb565b60405161009591906107b9565b60405180910390f35b60016000808282546100b0919061089b565b9250508190555060016040518060a001604052803373ffffffffffffffffffffffffffffffffffffffff1681526020018573ffffffffffffffffffffffffffffffffffffffff16815260200184815260200183815260200142815250908060018154018082558091505060019003906000526020600020906005020160009091909190915060008201518160000160006101000a81548173ffffffffffffffffffffffffffffffffffffffff021916908373ffffffffffffffffffffffffffffffffffffffff16021790555060208201518160010160006101000a81548173ffffffffffffffffffffffffffffffffffffffff021916908373ffffffffffffffffffffffffffffffffffffffff1602179055506040820151816002015560608201518160030190805190602001906101e99291906103f4565b506080820151816004015550507fc4b32d7ff75a51e487f3cbb5d3202f2efecca1f4c2b987e0039c1d3220b48a83338484844260405161022d95949392919061073d565b60405180910390a1505050565b60606001805480602002602001604051908101604052809291908181526020016000905b828210156103e257838290600052602060002090600502016040518060a00160405290816000820160009054906101000a900473ffffffffffffffffffffffffffffffffffffffff1673ffffffffffffffffffffffffffffffffffffffff1673ffffffffffffffffffffffffffffffffffffffff1681526020016001820160009054906101000a900473ffffffffffffffffffffffffffffffffffffffff1673ffffffffffffffffffffffffffffffffffffffff1673ffffffffffffffffffffffffffffffffffffffff168152602001600282015481526020016003820180546103479061096f565b80601f01602080910402602001604051908101604052809291908181526020018280546103739061096f565b80156103c05780601f10610395576101008083540402835291602001916103c0565b820191906000526020600020905b8154815290600101906020018083116103a357829003601f168201915b505050505081526020016004820154815250508152602001906001019061025e565b50505050905090565b60008054905090565b8280546104009061096f565b90600052602060002090601f0160209004810192826104225760008555610469565b82601f1061043b57805160ff1916838001178555610469565b82800160010185558215610469579182015b8281111561046857825182559160200191906001019061044d565b5b509050610476919061047a565b5090565b5b8082111561049357600081600090555060010161047b565b5090565b60006104aa6104a584610805565b6107d4565b9050828152602081018484840111156104c257600080fd5b6104cd84828561092d565b509392505050565b6000813590506104e481610a3f565b92915050565b600082601f8301126104fb57600080fd5b813561050b848260208601610497565b91505092915050565b60008135905061052381610a56565b92915050565b60008060006060848603121561053e57600080fd5b600061054c868287016104d5565b935050602061055d86828701610514565b925050604084013567ffffffffffffffff81111561057a57600080fd5b610586868287016104ea565b9150509250925092565b600061059c83836106a9565b905092915050565b6105ad816108f1565b82525050565b6105bc816108f1565b82525050565b60006105cd82610845565b6105d78185610868565b9350836020820285016105e985610835565b8060005b8581101561062557848403895281516106068582610590565b94506106118361085b565b925060208a019950506001810190506105ed565b50829750879550505050505092915050565b600061064282610850565b61064c8185610879565b935061065c81856020860161093c565b61066581610a2e565b840191505092915050565b600061067b82610850565b610685818561088a565b935061069581856020860161093c565b61069e81610a2e565b840191505092915050565b600060a0830160008301516106c160008601826105a4565b5060208301516106d460208601826105a4565b5060408301516106e7604086018261071f565b50606083015184820360608601526106ff8282610637565b9150506080830151610714608086018261071f565b508091505092915050565b61072881610923565b82525050565b61073781610923565b82525050565b600060a08201905061075260008301886105b3565b61075f60208301876105b3565b61076c604083018661072e565b818103606083015261077e8185610670565b905061078d608083018461072e565b9695505050505050565b600060208201905081810360008301526107b181846105c2565b905092915050565b60006020820190506107ce600083018461072e565b92915050565b6000604051905081810181811067ffffffffffffffff821117156107fb576107fa6109ff565b5b8060405250919050565b600067ffffffffffffffff8211156108205761081f6109ff565b5b601f19601f8301169050602081019050919050565b6000819050602082019050919050565b600081519050919050565b600081519050919050565b6000602082019050919050565b600082825260208201905092915050565b600082825260208201905092915050565b600082825260208201905092915050565b60006108a682610923565b91506108b183610923565b9250827fffffffffffffffffffffffffffffffffffffffffffffffffffffffffffffffff038211156108e6576108e56109a1565b5b828201905092915050565b60006108fc82610903565b9050919050565b600073ffffffffffffffffffffffffffffffffffffffff82169050919050565b6000819050919050565b82818337600083830152505050565b60005b8381101561095a57808201518184015260208101905061093f565b83811115610969576000848401525b50505050565b6000600282049050600182168061098757607f821691505b6020821081141561099b5761099a6109d0565b5b50919050565b7f4e487b7100000000000000000000000000000000000000000000000000000000600052601160045260246000fd5b7f4e487b7100000000000000000000000000000000000000000000000000000000600052602260045260246000fd5b7f4e487b7100000000000000000000000000000000000000000000000000000000600052604160045260246000fd5b6000601f19601f8301169050919050565b610a48816108f1565b8114610a5357600080fd5b50565b610a5f81610923565b8114610a6a57600080fd5b5056fea2646970667358221220af281ad0b4e17a40dc1bedb979d20d6b730a5347884db40c1169a52fdfb6270764736f6c63430008000033",
  "linkReferences": {},
  "deployedLinkReferences": {}
}